{"contracts/SendETH.sol":{"SendETH":{"abi":[{"inputs":[],"stateMutability":"payable","type":"constructor"},{"inputs":[],"name":"getBalance","outputs":[{"internalType":"uint256","name":"","type":"uint256"}],"stateMutability":"view","type":"function"},{"inputs":[{"internalType":"address payable","name":"_to","type":"address"},{"internalType":"uint256","name":"_amount","type":"uint256"}],"name":"sendETH","outputs":[],"stateMutability":"nonpayable","type":"function"},{"stateMutability":"payable","type":"receive"}],"evm":{"bytecode":{"linkReferences":{},"object":"60806040526103f1806100136000396000f3fe60806040526004361061002d5760003560e01c806312065fe01461003957806364a197f31461006457610034565b3661003457005b600080fd5b34801561004557600080fd5b5061004e61008d565b60405161005b91906101a2565b60405180910390f35b34801561007057600080fd5b5061008b6004803603810190610086919061024c565b610095565b005b600047905090565b804710156100d8576040517f08c379a00000000000000000000000000000000000000000000000000000000081526004016100cf906102e9565b60405180910390fd5b60008273ffffffffffffffffffffffffffffffffffffffff16826040516100fe9061033a565b60006040518083038185875af1925050503d806000811461013b576040519150601f19603f3d011682016040523d82523d6000602084013e610140565b606091505b5050905080610184576040517f08c379a000000000000000000000000000000000000000000000000000000000815260040161017b9061039b565b60405180910390fd5b505050565b6000819050919050565b61019c81610189565b82525050565b60006020820190506101b76000830184610193565b92915050565b600080fd5b600073ffffffffffffffffffffffffffffffffffffffff82169050919050565b60006101ed826101c2565b9050919050565b6101fd816101e2565b811461020857600080fd5b50565b60008135905061021a816101f4565b92915050565b61022981610189565b811461023457600080fd5b50565b60008135905061024681610220565b92915050565b60008060408385031215610263576102626101bd565b5b60006102718582860161020b565b925050602061028285828601610237565b9150509250929050565b600082825260208201905092915050565b7f496e73756666696369656e742062616c616e6365000000000000000000000000600082015250565b60006102d360148361028c565b91506102de8261029d565b602082019050919050565b60006020820190508181036000830152610302816102c6565b9050919050565b600081905092915050565b50565b6000610324600083610309565b915061032f82610314565b600082019050919050565b600061034582610317565b9150819050919050565b7f4661696c656420746f2073656e64204554480000000000000000000000000000600082015250565b600061038560128361028c565b91506103908261034f565b602082019050919050565b600060208201905081810360008301526103b481610378565b905091905056fea2646970667358221220974ee9ec2824cc4083c37ff46d13214baee60d8ccfb22662aacc0fb9f417d4f664736f6c63430008180033","opcodes":"PUSH1 0x80 PUSH1 0x40 MSTORE PUSH2 0x3F1 DUP1 PUSH2 0x13 PUSH1 0x0 CODECOPY PUSH1 0x0 RETURN INVALID PUSH1 0x80 PUSH1 0x40 MSTORE PUSH1 0x4 CALLDATASIZE LT PUSH2 0x2D JUMPI PUSH1 0x0 CALLDATALOAD PUSH1 0xE0 SHR DUP1 PUSH4 0x12065FE0 EQ PUSH2 0x39 JUMPI DUP1 PUSH4 0x64A197F3 EQ PUSH2 0x64 JUMPI PUSH2 0x34 JUMP JUMPDEST CALLDATASIZE PUSH2 0x34 JUMPI STOP JUMPDEST PUSH1 0x0 DUP1 REVERT JUMPDEST CALLVALUE DUP1 ISZERO PUSH2 0x45 JUMPI PUSH1 0x0 DUP1 REVERT JUMPDEST POP PUSH2 0x4E PUSH2 0x8D JUMP JUMPDEST PUSH1 0x40 MLOAD PUSH2 0x5B SWAP2 SWAP1 PUSH2 0x1A2 JUMP JUMPDEST PUSH1 0x40 MLOAD DUP1 SWAP2 SUB SWAP1 RETURN JUMPDEST CALLVALUE DUP1 ISZERO PUSH2 0x70 JUMPI PUSH1 0x0 DUP1 REVERT JUMPDEST POP PUSH2 0x8B PUSH1 0x4 DUP1 CALLDATASIZE SUB DUP2 ADD SWAP1 PUSH2 0x86 SWAP2 SWAP1 PUSH2 0x24C JUMP JUMPDEST PUSH2 0x95 JUMP JUMPDEST STOP JUMPDEST PUSH1 0x0 SELFBALANCE SWAP1 POP SWAP1 JUMP JUMPDEST DUP1 SELFBALANCE LT ISZERO PUSH2 0xD8 JUMPI PUSH1 0x40 MLOAD PUSH32 0x8C379A000000000000000000000000000000000000000000000000000000000 DUP2 MSTORE PUSH1 0x4 ADD PUSH2 0xCF SWAP1 PUSH2 0x2E9 JUMP JUMPDEST PUSH1 0x40 MLOAD DUP1 SWAP2 SUB SWAP1 REVERT JUMPDEST PUSH1 0x0 DUP3 PUSH20 0xFFFFFFFFFFFFFFFFFFFFFFFFFFFFFFFFFFFFFFFF AND DUP3 PUSH1 0x40 MLOAD PUSH2 0xFE SWAP1 PUSH2 0x33A JUMP JUMPDEST PUSH1 0x0 PUSH1 0x40 MLOAD DUP1 DUP4 SUB DUP2 DUP6 DUP8 GAS CALL SWAP3 POP POP POP RETURNDATASIZE DUP1 PUSH1 0x0 DUP2 EQ PUSH2 0x13B JUMPI PUSH1 0x40 MLOAD SWAP2 POP PUSH1 0x1F NOT PUSH1 0x3F RETURNDATASIZE ADD AND DUP3 ADD PUSH1 0x40 MSTORE RETURNDATASIZE DUP3 MSTORE RETURNDATASIZE PUSH1 0x0 PUSH1 0x20 DUP5 ADD RETURNDATACOPY PUSH2 0x140 JUMP JUMPDEST PUSH1 0x60 SWAP2 POP JUMPDEST POP POP SWAP1 POP DUP1 PUSH2 0x184 JUMPI PUSH1 0x40 MLOAD PUSH32 0x8C379A000000000000000000000000000000000000000000000000000000000 DUP2 MSTORE PUSH1 0x4 ADD PUSH2 0x17B SWAP1 PUSH2 0x39B JUMP JUMPDEST PUSH1 0x40 MLOAD DUP1 SWAP2 SUB SWAP1 REVERT JUMPDEST POP POP POP JUMP JUMPDEST PUSH1 0x0 DUP2 SWAP1 POP SWAP2 SWAP1 POP JUMP JUMPDEST PUSH2 0x19C DUP2 PUSH2 0x189 JUMP JUMPDEST DUP3 MSTORE POP POP JUMP JUMPDEST PUSH1 0x0 PUSH1 0x20 DUP3 ADD SWAP1 POP PUSH2 0x1B7 PUSH1 0x0 DUP4 ADD DUP5 PUSH2 0x193 JUMP JUMPDEST SWAP3 SWAP2 POP POP JUMP JUMPDEST PUSH1 0x0 DUP1 REVERT JUMPDEST PUSH1 0x0 PUSH20 0xFFFFFFFFFFFFFFFFFFFFFFFFFFFFFFFFFFFFFFFF DUP3 AND SWAP1 POP SWAP2 SWAP1 POP JUMP JUMPDEST PUSH1 0x0 PUSH2 0x1ED DUP3 PUSH2 0x1C2 JUMP JUMPDEST SWAP1 POP SWAP2 SWAP1 POP JUMP JUMPDEST PUSH2 0x1FD DUP2 PUSH2 0x1E2 JUMP JUMPDEST DUP2 EQ PUSH2 0x208 JUMPI PUSH1 0x0 DUP1 REVERT JUMPDEST POP JUMP JUMPDEST PUSH1 0x0 DUP2 CALLDATALOAD SWAP1 POP PUSH2 0x21A DUP2 PUSH2 0x1F4 JUMP JUMPDEST SWAP3 SWAP2 POP POP JUMP JUMPDEST PUSH2 0x229 DUP2 PUSH2 0x189 JUMP JUMPDEST DUP2 EQ PUSH2 0x234 JUMPI PUSH1 0x0 DUP1 REVERT JUMPDEST POP JUMP JUMPDEST PUSH1 0x0 DUP2 CALLDATALOAD SWAP1 POP PUSH2 0x246 DUP2 PUSH2 0x220 JUMP JUMPDEST SWAP3 SWAP2 POP POP JUMP JUMPDEST PUSH1 0x0 DUP1 PUSH1 0x40 DUP4 DUP6 SUB SLT ISZERO PUSH2 0x263 JUMPI PUSH2 0x262 PUSH2 0x1BD JUMP JUMPDEST JUMPDEST PUSH1 0x0 PUSH2 0x271 DUP6 DUP3 DUP7 ADD PUSH2 0x20B JUMP JUMPDEST SWAP3 POP POP PUSH1 0x20 PUSH2 0x282 DUP6 DUP3 DUP7 ADD PUSH2 0x237 JUMP JUMPDEST SWAP2 POP POP SWAP3 POP SWAP3 SWAP1 POP JUMP JUMPDEST PUSH1 0x0 DUP3 DUP3 MSTORE PUSH1 0x20 DUP3 ADD SWAP1 POP SWAP3 SWAP2 POP POP JUMP JUMPDEST PUSH32 0x496E73756666696369656E742062616C616E6365000000000000000000000000 PUSH1 0x0 DUP3 ADD MSTORE POP JUMP JUMPDEST PUSH1 0x0 PUSH2 0x2D3 PUSH1 0x14 DUP4 PUSH2 0x28C JUMP JUMPDEST SWAP2 POP PUSH2 0x2DE DUP3 PUSH2 0x29D JUMP JUMPDEST PUSH1 0x20 DUP3 ADD SWAP1 POP SWAP2 SWAP1 POP JUMP JUMPDEST PUSH1 0x0 PUSH1 0x20 DUP3 ADD SWAP1 POP DUP2 DUP2 SUB PUSH1 0x0 DUP4 ADD MSTORE PUSH2 0x302 DUP2 PUSH2 0x2C6 JUMP JUMPDEST SWAP1 POP SWAP2 SWAP1 POP JUMP JUMPDEST PUSH1 0x0 DUP2 SWAP1 POP SWAP3 SWAP2 POP POP JUMP JUMPDEST POP JUMP JUMPDEST PUSH1 0x0 PUSH2 0x324 PUSH1 0x0 DUP4 PUSH2 0x309 JUMP JUMPDEST SWAP2 POP PUSH2 0x32F DUP3 PUSH2 0x314 JUMP JUMPDEST PUSH1 0x0 DUP3 ADD SWAP1 POP SWAP2 SWAP1 POP JUMP JUMPDEST PUSH1 0x0 PUSH2 0x345 DUP3 PUSH2 0x317 JUMP JUMPDEST SWAP2 POP DUP2 SWAP1 POP SWAP2 SWAP1 POP JUMP JUMPDEST PUSH32 0x4661696C656420746F2073656E64204554480000000000000000000000000000 PUSH1 0x0 DUP3 ADD MSTORE POP JUMP JUMPDEST PUSH1 0x0 PUSH2 0x385 PUSH1 0x12 DUP4 PUSH2 0x28C JUMP JUMPDEST SWAP2 POP PUSH2 0x390 DUP3 PUSH2 0x34F JUMP JUMPDEST PUSH1 0x20 DUP3 ADD SWAP1 POP SWAP2 SWAP1 POP JUMP JUMPDEST PUSH1 0x0 PUSH1 0x20 DUP3 ADD SWAP1 POP DUP2 DUP2 SUB PUSH1 0x0 DUP4 ADD MSTORE PUSH2 0x3B4 DUP2 PUSH2 0x378 JUMP JUMPDEST SWAP1 POP SWAP2 SWAP1 POP JUMP INVALID LOG2 PUSH5 0x6970667358 0x22 SLT KECCAK256 SWAP8 0x4E 0xE9 0xEC 0x28 0x24 0xCC BLOCKHASH DUP4 0xC3 PUSH32 0xF46D13214BAEE60D8CCFB22662AACC0FB9F417D4F664736F6C63430008180033 "},"methodIdentifiers":{"getBalance()":"12065fe0","sendETH(address,uint256)":"64a197f3"}}}}}