{"contracts/Inherit.sol":{"Inherit":{"abi":[{"inputs":[{"internalType":"uint256","name":"_data","type":"uint256"}],"stateMutability":"nonpayable","type":"constructor"},{"inputs":[],"name":"getData","outputs":[{"internalType":"uint256","name":"","type":"uint256"},{"internalType":"uint256","name":"","type":"uint256"}],"stateMutability":"view","type":"function"},{"inputs":[{"internalType":"uint256","name":"_dataA","type":"uint256"},{"internalType":"uint256","name":"_dataB","type":"uint256"}],"name":"setData","outputs":[],"stateMutability":"nonpayable","type":"function"}],"evm":{"bytecode":{"linkReferences":{},"object":"608060405234801561001057600080fd5b5060405161026f38038061026f8339818101604052810190610032919061007c565b808060018190555050506100a9565b600080fd5b6000819050919050565b61005981610046565b811461006457600080fd5b50565b60008151905061007681610050565b92915050565b60006020828403121561009257610091610041565b5b60006100a084828501610067565b91505092915050565b6101b7806100b86000396000f3fe608060405234801561001057600080fd5b50600436106100365760003560e01c80633bc5de301461003b5780634848b1a51461005a575b600080fd5b610043610076565b6040516100519291906100e7565b60405180910390f35b610074600480360381019061006f9190610141565b610091565b005b6000806100816100a7565b6100896100b0565b915091509091565b61009a826100ba565b6100a3816100c4565b5050565b60008054905090565b6000600154905090565b8060008190555050565b8060018190555050565b6000819050919050565b6100e1816100ce565b82525050565b60006040820190506100fc60008301856100d8565b61010960208301846100d8565b9392505050565b600080fd5b61011e816100ce565b811461012957600080fd5b50565b60008135905061013b81610115565b92915050565b6000806040838503121561015857610157610110565b5b60006101668582860161012c565b92505060206101778582860161012c565b915050925092905056fea2646970667358221220a469f81fff0850aa1768c2f287d8eb851cee369793aec0b9df7a9b641f6703f364736f6c63430008180033","opcodes":"PUSH1 0x80 PUSH1 0x40 MSTORE CALLVALUE DUP1 ISZERO PUSH2 0x10 JUMPI PUSH1 0x0 DUP1 REVERT JUMPDEST POP PUSH1 0x40 MLOAD PUSH2 0x26F CODESIZE SUB DUP1 PUSH2 0x26F DUP4 CODECOPY DUP2 DUP2 ADD PUSH1 0x40 MSTORE DUP2 ADD SWAP1 PUSH2 0x32 SWAP2 SWAP1 PUSH2 0x7C JUMP JUMPDEST DUP1 DUP1 PUSH1 0x1 DUP2 SWAP1 SSTORE POP POP POP PUSH2 0xA9 JUMP JUMPDEST PUSH1 0x0 DUP1 REVERT JUMPDEST PUSH1 0x0 DUP2 SWAP1 POP SWAP2 SWAP1 POP JUMP JUMPDEST PUSH2 0x59 DUP2 PUSH2 0x46 JUMP JUMPDEST DUP2 EQ PUSH2 0x64 JUMPI PUSH1 0x0 DUP1 REVERT JUMPDEST POP JUMP JUMPDEST PUSH1 0x0 DUP2 MLOAD SWAP1 POP PUSH2 0x76 DUP2 PUSH2 0x50 JUMP JUMPDEST SWAP3 SWAP2 POP POP JUMP JUMPDEST PUSH1 0x0 PUSH1 0x20 DUP3 DUP5 SUB SLT ISZERO PUSH2 0x92 JUMPI PUSH2 0x91 PUSH2 0x41 JUMP JUMPDEST JUMPDEST PUSH1 0x0 PUSH2 0xA0 DUP5 DUP3 DUP6 ADD PUSH2 0x67 JUMP JUMPDEST SWAP2 POP POP SWAP3 SWAP2 POP POP JUMP JUMPDEST PUSH2 0x1B7 DUP1 PUSH2 0xB8 PUSH1 0x0 CODECOPY PUSH1 0x0 RETURN INVALID PUSH1 0x80 PUSH1 0x40 MSTORE CALLVALUE DUP1 ISZERO PUSH2 0x10 JUMPI PUSH1 0x0 DUP1 REVERT JUMPDEST POP PUSH1 0x4 CALLDATASIZE LT PUSH2 0x36 JUMPI PUSH1 0x0 CALLDATALOAD PUSH1 0xE0 SHR DUP1 PUSH4 0x3BC5DE30 EQ PUSH2 0x3B JUMPI DUP1 PUSH4 0x4848B1A5 EQ PUSH2 0x5A JUMPI JUMPDEST PUSH1 0x0 DUP1 REVERT JUMPDEST PUSH2 0x43 PUSH2 0x76 JUMP JUMPDEST PUSH1 0x40 MLOAD PUSH2 0x51 SWAP3 SWAP2 SWAP1 PUSH2 0xE7 JUMP JUMPDEST PUSH1 0x40 MLOAD DUP1 SWAP2 SUB SWAP1 RETURN JUMPDEST PUSH2 0x74 PUSH1 0x4 DUP1 CALLDATASIZE SUB DUP2 ADD SWAP1 PUSH2 0x6F SWAP2 SWAP1 PUSH2 0x141 JUMP JUMPDEST PUSH2 0x91 JUMP JUMPDEST STOP JUMPDEST PUSH1 0x0 DUP1 PUSH2 0x81 PUSH2 0xA7 JUMP JUMPDEST PUSH2 0x89 PUSH2 0xB0 JUMP JUMPDEST SWAP2 POP SWAP2 POP SWAP1 SWAP2 JUMP JUMPDEST PUSH2 0x9A DUP3 PUSH2 0xBA JUMP JUMPDEST PUSH2 0xA3 DUP2 PUSH2 0xC4 JUMP JUMPDEST POP POP JUMP JUMPDEST PUSH1 0x0 DUP1 SLOAD SWAP1 POP SWAP1 JUMP JUMPDEST PUSH1 0x0 PUSH1 0x1 SLOAD SWAP1 POP SWAP1 JUMP JUMPDEST DUP1 PUSH1 0x0 DUP2 SWAP1 SSTORE POP POP JUMP JUMPDEST DUP1 PUSH1 0x1 DUP2 SWAP1 SSTORE POP POP JUMP JUMPDEST PUSH1 0x0 DUP2 SWAP1 POP SWAP2 SWAP1 POP JUMP JUMPDEST PUSH2 0xE1 DUP2 PUSH2 0xCE JUMP JUMPDEST DUP3 MSTORE POP POP JUMP JUMPDEST PUSH1 0x0 PUSH1 0x40 DUP3 ADD SWAP1 POP PUSH2 0xFC PUSH1 0x0 DUP4 ADD DUP6 PUSH2 0xD8 JUMP JUMPDEST PUSH2 0x109 PUSH1 0x20 DUP4 ADD DUP5 PUSH2 0xD8 JUMP JUMPDEST SWAP4 SWAP3 POP POP POP JUMP JUMPDEST PUSH1 0x0 DUP1 REVERT JUMPDEST PUSH2 0x11E DUP2 PUSH2 0xCE JUMP JUMPDEST DUP2 EQ PUSH2 0x129 JUMPI PUSH1 0x0 DUP1 REVERT JUMPDEST POP JUMP JUMPDEST PUSH1 0x0 DUP2 CALLDATALOAD SWAP1 POP PUSH2 0x13B DUP2 PUSH2 0x115 JUMP JUMPDEST SWAP3 SWAP2 POP POP JUMP JUMPDEST PUSH1 0x0 DUP1 PUSH1 0x40 DUP4 DUP6 SUB SLT ISZERO PUSH2 0x158 JUMPI PUSH2 0x157 PUSH2 0x110 JUMP JUMPDEST JUMPDEST PUSH1 0x0 PUSH2 0x166 DUP6 DUP3 DUP7 ADD PUSH2 0x12C JUMP JUMPDEST SWAP3 POP POP PUSH1 0x20 PUSH2 0x177 DUP6 DUP3 DUP7 ADD PUSH2 0x12C JUMP JUMPDEST SWAP2 POP POP SWAP3 POP SWAP3 SWAP1 POP JUMP INVALID LOG2 PUSH5 0x6970667358 0x22 SLT KECCAK256 LOG4 PUSH10 0xF81FFF0850AA1768C2F2 DUP8 0xD8 0xEB DUP6 SHR 0xEE CALLDATASIZE SWAP8 SWAP4 0xAE 0xC0 0xB9 0xDF PUSH27 0x9B641F6703F364736F6C6343000818003300000000000000000000 "},"methodIdentifiers":{"getData()":"3bc5de30","setData(uint256,uint256)":"4848b1a5"}}}}}