{"contracts/FunctionEvent.sol":{"FunctionEvent":{"abi":[{"inputs":[],"stateMutability":"nonpayable","type":"constructor"},{"inputs":[{"internalType":"uint256","name":"a","type":"uint256"},{"internalType":"uint256","name":"b","type":"uint256"}],"name":"add","outputs":[{"internalType":"uint256","name":"","type":"uint256"}],"stateMutability":"pure","type":"function"},{"inputs":[],"name":"data","outputs":[{"internalType":"uint256","name":"","type":"uint256"}],"stateMutability":"view","type":"function"},{"inputs":[],"name":"getData","outputs":[{"internalType":"uint256","name":"","type":"uint256"}],"stateMutability":"view","type":"function"},{"inputs":[{"internalType":"uint256","name":"_number","type":"uint256"}],"name":"setData","outputs":[],"stateMutability":"nonpayable","type":"function"}],"evm":{"bytecode":{"linkReferences":{},"object":"608060405234801561001057600080fd5b50610273806100206000396000f3fe608060405234801561001057600080fd5b506004361061004c5760003560e01c80633bc5de30146100515780635b4b73a91461006f57806373d4a13a1461008b578063771602f7146100a9575b600080fd5b6100596100d9565b6040516100669190610121565b60405180910390f35b6100896004803603810190610084919061016d565b6100e2565b005b6100936100ec565b6040516100a09190610121565b60405180910390f35b6100c360048036038101906100be919061019a565b6100f2565b6040516100d09190610121565b60405180910390f35b60008054905090565b8060008190555050565b60005481565b600081836101009190610209565b905092915050565b6000819050919050565b61011b81610108565b82525050565b60006020820190506101366000830184610112565b92915050565b600080fd5b61014a81610108565b811461015557600080fd5b50565b60008135905061016781610141565b92915050565b6000602082840312156101835761018261013c565b5b600061019184828501610158565b91505092915050565b600080604083850312156101b1576101b061013c565b5b60006101bf85828601610158565b92505060206101d085828601610158565b9150509250929050565b7f4e487b7100000000000000000000000000000000000000000000000000000000600052601160045260246000fd5b600061021482610108565b915061021f83610108565b9250828201905080821115610237576102366101da565b5b9291505056fea2646970667358221220037cd7bfa21e32bd93210ef6684419057b37fee4213c5f26f2b9d4461cefd76d64736f6c63430008180033","opcodes":"PUSH1 0x80 PUSH1 0x40 MSTORE CALLVALUE DUP1 ISZERO PUSH2 0x10 JUMPI PUSH1 0x0 DUP1 REVERT JUMPDEST POP PUSH2 0x273 DUP1 PUSH2 0x20 PUSH1 0x0 CODECOPY PUSH1 0x0 RETURN INVALID PUSH1 0x80 PUSH1 0x40 MSTORE CALLVALUE DUP1 ISZERO PUSH2 0x10 JUMPI PUSH1 0x0 DUP1 REVERT JUMPDEST POP PUSH1 0x4 CALLDATASIZE LT PUSH2 0x4C JUMPI PUSH1 0x0 CALLDATALOAD PUSH1 0xE0 SHR DUP1 PUSH4 0x3BC5DE30 EQ PUSH2 0x51 JUMPI DUP1 PUSH4 0x5B4B73A9 EQ PUSH2 0x6F JUMPI DUP1 PUSH4 0x73D4A13A EQ PUSH2 0x8B JUMPI DUP1 PUSH4 0x771602F7 EQ PUSH2 0xA9 JUMPI JUMPDEST PUSH1 0x0 DUP1 REVERT JUMPDEST PUSH2 0x59 PUSH2 0xD9 JUMP JUMPDEST PUSH1 0x40 MLOAD PUSH2 0x66 SWAP2 SWAP1 PUSH2 0x121 JUMP JUMPDEST PUSH1 0x40 MLOAD DUP1 SWAP2 SUB SWAP1 RETURN JUMPDEST PUSH2 0x89 PUSH1 0x4 DUP1 CALLDATASIZE SUB DUP2 ADD SWAP1 PUSH2 0x84 SWAP2 SWAP1 PUSH2 0x16D JUMP JUMPDEST PUSH2 0xE2 JUMP JUMPDEST STOP JUMPDEST PUSH2 0x93 PUSH2 0xEC JUMP JUMPDEST PUSH1 0x40 MLOAD PUSH2 0xA0 SWAP2 SWAP1 PUSH2 0x121 JUMP JUMPDEST PUSH1 0x40 MLOAD DUP1 SWAP2 SUB SWAP1 RETURN JUMPDEST PUSH2 0xC3 PUSH1 0x4 DUP1 CALLDATASIZE SUB DUP2 ADD SWAP1 PUSH2 0xBE SWAP2 SWAP1 PUSH2 0x19A JUMP JUMPDEST PUSH2 0xF2 JUMP JUMPDEST PUSH1 0x40 MLOAD PUSH2 0xD0 SWAP2 SWAP1 PUSH2 0x121 JUMP JUMPDEST PUSH1 0x40 MLOAD DUP1 SWAP2 SUB SWAP1 RETURN JUMPDEST PUSH1 0x0 DUP1 SLOAD SWAP1 POP SWAP1 JUMP JUMPDEST DUP1 PUSH1 0x0 DUP2 SWAP1 SSTORE POP POP JUMP JUMPDEST PUSH1 0x0 SLOAD DUP2 JUMP JUMPDEST PUSH1 0x0 DUP2 DUP4 PUSH2 0x100 SWAP2 SWAP1 PUSH2 0x209 JUMP JUMPDEST SWAP1 POP SWAP3 SWAP2 POP POP JUMP JUMPDEST PUSH1 0x0 DUP2 SWAP1 POP SWAP2 SWAP1 POP JUMP JUMPDEST PUSH2 0x11B DUP2 PUSH2 0x108 JUMP JUMPDEST DUP3 MSTORE POP POP JUMP JUMPDEST PUSH1 0x0 PUSH1 0x20 DUP3 ADD SWAP1 POP PUSH2 0x136 PUSH1 0x0 DUP4 ADD DUP5 PUSH2 0x112 JUMP JUMPDEST SWAP3 SWAP2 POP POP JUMP JUMPDEST PUSH1 0x0 DUP1 REVERT JUMPDEST PUSH2 0x14A DUP2 PUSH2 0x108 JUMP JUMPDEST DUP2 EQ PUSH2 0x155 JUMPI PUSH1 0x0 DUP1 REVERT JUMPDEST POP JUMP JUMPDEST PUSH1 0x0 DUP2 CALLDATALOAD SWAP1 POP PUSH2 0x167 DUP2 PUSH2 0x141 JUMP JUMPDEST SWAP3 SWAP2 POP POP JUMP JUMPDEST PUSH1 0x0 PUSH1 0x20 DUP3 DUP5 SUB SLT ISZERO PUSH2 0x183 JUMPI PUSH2 0x182 PUSH2 0x13C JUMP JUMPDEST JUMPDEST PUSH1 0x0 PUSH2 0x191 DUP5 DUP3 DUP6 ADD PUSH2 0x158 JUMP JUMPDEST SWAP2 POP POP SWAP3 SWAP2 POP POP JUMP JUMPDEST PUSH1 0x0 DUP1 PUSH1 0x40 DUP4 DUP6 SUB SLT ISZERO PUSH2 0x1B1 JUMPI PUSH2 0x1B0 PUSH2 0x13C JUMP JUMPDEST JUMPDEST PUSH1 0x0 PUSH2 0x1BF DUP6 DUP3 DUP7 ADD PUSH2 0x158 JUMP JUMPDEST SWAP3 POP POP PUSH1 0x20 PUSH2 0x1D0 DUP6 DUP3 DUP7 ADD PUSH2 0x158 JUMP JUMPDEST SWAP2 POP POP SWAP3 POP SWAP3 SWAP1 POP JUMP JUMPDEST PUSH32 0x4E487B7100000000000000000000000000000000000000000000000000000000 PUSH1 0x0 MSTORE PUSH1 0x11 PUSH1 0x4 MSTORE PUSH1 0x24 PUSH1 0x0 REVERT JUMPDEST PUSH1 0x0 PUSH2 0x214 DUP3 PUSH2 0x108 JUMP JUMPDEST SWAP2 POP PUSH2 0x21F DUP4 PUSH2 0x108 JUMP JUMPDEST SWAP3 POP DUP3 DUP3 ADD SWAP1 POP DUP1 DUP3 GT ISZERO PUSH2 0x237 JUMPI PUSH2 0x236 PUSH2 0x1DA JUMP JUMPDEST JUMPDEST SWAP3 SWAP2 POP POP JUMP INVALID LOG2 PUSH5 0x6970667358 0x22 SLT KECCAK256 SUB PUSH29 0xD7BFA21E32BD93210EF6684419057B37FEE4213C5F26F2B9D4461CEFD7 PUSH14 0x64736F6C63430008180033000000 "},"methodIdentifiers":{"add(uint256,uint256)":"771602f7","data()":"73d4a13a","getData()":"3bc5de30","setData(uint256)":"5b4b73a9"}}}}}