{"contracts/FunctionEvent.sol":{"FunctionEventInherit":{"abi":[{"inputs":[],"stateMutability":"nonpayable","type":"constructor"},{"inputs":[{"internalType":"uint256","name":"a","type":"uint256"},{"internalType":"uint256","name":"b","type":"uint256"}],"name":"add","outputs":[{"internalType":"uint256","name":"","type":"uint256"}],"stateMutability":"pure","type":"function"},{"inputs":[{"internalType":"uint256","name":"a","type":"uint256"},{"internalType":"uint256","name":"b","type":"uint256"}],"name":"addInherit","outputs":[{"internalType":"uint256","name":"","type":"uint256"}],"stateMutability":"pure","type":"function"},{"inputs":[],"name":"data","outputs":[{"internalType":"uint256","name":"","type":"uint256"}],"stateMutability":"view","type":"function"},{"inputs":[],"name":"dataInherit","outputs":[{"internalType":"uint256","name":"","type":"uint256"}],"stateMutability":"view","type":"function"},{"inputs":[],"name":"getData","outputs":[{"internalType":"uint256","name":"","type":"uint256"}],"stateMutability":"view","type":"function"},{"inputs":[],"name":"getDataInherit","outputs":[{"internalType":"uint256","name":"","type":"uint256"}],"stateMutability":"view","type":"function"},{"inputs":[{"internalType":"uint256","name":"_number","type":"uint256"}],"name":"setData","outputs":[],"stateMutability":"nonpayable","type":"function"},{"inputs":[{"internalType":"uint256","name":"_number","type":"uint256"}],"name":"setDataInherit","outputs":[],"stateMutability":"nonpayable","type":"function"}],"evm":{"bytecode":{"linkReferences":{},"object":"608060405234801561001057600080fd5b50610367806100206000396000f3fe608060405234801561001057600080fd5b50600436106100885760003560e01c806373d4a13a1161005b57806373d4a13a1461010157806375c750181461011f578063771602f71461013d578063bed71cad1461016d57610088565b80633bc5de301461008d5780635b4b73a9146100ab5780635c3f0ddd146100c7578063611ec541146100e5575b600080fd5b61009561019d565b6040516100a29190610215565b60405180910390f35b6100c560048036038101906100c09190610261565b6101a6565b005b6100cf6101b0565b6040516100dc9190610215565b60405180910390f35b6100ff60048036038101906100fa9190610261565b6101b6565b005b6101096101c0565b6040516101169190610215565b60405180910390f35b6101276101c6565b6040516101349190610215565b60405180910390f35b6101576004803603810190610152919061028e565b6101d0565b6040516101649190610215565b60405180910390f35b6101876004803603810190610182919061028e565b6101e6565b6040516101949190610215565b60405180910390f35b60008054905090565b8060008190555050565b60015481565b8060018190555050565b60005481565b6000600154905090565b600081836101de91906102fd565b905092915050565b600081836101f491906102fd565b905092915050565b6000819050919050565b61020f816101fc565b82525050565b600060208201905061022a6000830184610206565b92915050565b600080fd5b61023e816101fc565b811461024957600080fd5b50565b60008135905061025b81610235565b92915050565b60006020828403121561027757610276610230565b5b60006102858482850161024c565b91505092915050565b600080604083850312156102a5576102a4610230565b5b60006102b38582860161024c565b92505060206102c48582860161024c565b9150509250929050565b7f4e487b7100000000000000000000000000000000000000000000000000000000600052601160045260246000fd5b6000610308826101fc565b9150610313836101fc565b925082820190508082111561032b5761032a6102ce565b5b9291505056fea264697066735822122028e12b3501e076a7c14f3544cb433c0d82710fa4249f801878eb4d126f1cc97a64736f6c63430008180033","opcodes":"PUSH1 0x80 PUSH1 0x40 MSTORE CALLVALUE DUP1 ISZERO PUSH2 0x10 JUMPI PUSH1 0x0 DUP1 REVERT JUMPDEST POP PUSH2 0x367 DUP1 PUSH2 0x20 PUSH1 0x0 CODECOPY PUSH1 0x0 RETURN INVALID PUSH1 0x80 PUSH1 0x40 MSTORE CALLVALUE DUP1 ISZERO PUSH2 0x10 JUMPI PUSH1 0x0 DUP1 REVERT JUMPDEST POP PUSH1 0x4 CALLDATASIZE LT PUSH2 0x88 JUMPI PUSH1 0x0 CALLDATALOAD PUSH1 0xE0 SHR DUP1 PUSH4 0x73D4A13A GT PUSH2 0x5B JUMPI DUP1 PUSH4 0x73D4A13A EQ PUSH2 0x101 JUMPI DUP1 PUSH4 0x75C75018 EQ PUSH2 0x11F JUMPI DUP1 PUSH4 0x771602F7 EQ PUSH2 0x13D JUMPI DUP1 PUSH4 0xBED71CAD EQ PUSH2 0x16D JUMPI PUSH2 0x88 JUMP JUMPDEST DUP1 PUSH4 0x3BC5DE30 EQ PUSH2 0x8D JUMPI DUP1 PUSH4 0x5B4B73A9 EQ PUSH2 0xAB JUMPI DUP1 PUSH4 0x5C3F0DDD EQ PUSH2 0xC7 JUMPI DUP1 PUSH4 0x611EC541 EQ PUSH2 0xE5 JUMPI JUMPDEST PUSH1 0x0 DUP1 REVERT JUMPDEST PUSH2 0x95 PUSH2 0x19D JUMP JUMPDEST PUSH1 0x40 MLOAD PUSH2 0xA2 SWAP2 SWAP1 PUSH2 0x215 JUMP JUMPDEST PUSH1 0x40 MLOAD DUP1 SWAP2 SUB SWAP1 RETURN JUMPDEST PUSH2 0xC5 PUSH1 0x4 DUP1 CALLDATASIZE SUB DUP2 ADD SWAP1 PUSH2 0xC0 SWAP2 SWAP1 PUSH2 0x261 JUMP JUMPDEST PUSH2 0x1A6 JUMP JUMPDEST STOP JUMPDEST PUSH2 0xCF PUSH2 0x1B0 JUMP JUMPDEST PUSH1 0x40 MLOAD PUSH2 0xDC SWAP2 SWAP1 PUSH2 0x215 JUMP JUMPDEST PUSH1 0x40 MLOAD DUP1 SWAP2 SUB SWAP1 RETURN JUMPDEST PUSH2 0xFF PUSH1 0x4 DUP1 CALLDATASIZE SUB DUP2 ADD SWAP1 PUSH2 0xFA SWAP2 SWAP1 PUSH2 0x261 JUMP JUMPDEST PUSH2 0x1B6 JUMP JUMPDEST STOP JUMPDEST PUSH2 0x109 PUSH2 0x1C0 JUMP JUMPDEST PUSH1 0x40 MLOAD PUSH2 0x116 SWAP2 SWAP1 PUSH2 0x215 JUMP JUMPDEST PUSH1 0x40 MLOAD DUP1 SWAP2 SUB SWAP1 RETURN JUMPDEST PUSH2 0x127 PUSH2 0x1C6 JUMP JUMPDEST PUSH1 0x40 MLOAD PUSH2 0x134 SWAP2 SWAP1 PUSH2 0x215 JUMP JUMPDEST PUSH1 0x40 MLOAD DUP1 SWAP2 SUB SWAP1 RETURN JUMPDEST PUSH2 0x157 PUSH1 0x4 DUP1 CALLDATASIZE SUB DUP2 ADD SWAP1 PUSH2 0x152 SWAP2 SWAP1 PUSH2 0x28E JUMP JUMPDEST PUSH2 0x1D0 JUMP JUMPDEST PUSH1 0x40 MLOAD PUSH2 0x164 SWAP2 SWAP1 PUSH2 0x215 JUMP JUMPDEST PUSH1 0x40 MLOAD DUP1 SWAP2 SUB SWAP1 RETURN JUMPDEST PUSH2 0x187 PUSH1 0x4 DUP1 CALLDATASIZE SUB DUP2 ADD SWAP1 PUSH2 0x182 SWAP2 SWAP1 PUSH2 0x28E JUMP JUMPDEST PUSH2 0x1E6 JUMP JUMPDEST PUSH1 0x40 MLOAD PUSH2 0x194 SWAP2 SWAP1 PUSH2 0x215 JUMP JUMPDEST PUSH1 0x40 MLOAD DUP1 SWAP2 SUB SWAP1 RETURN JUMPDEST PUSH1 0x0 DUP1 SLOAD SWAP1 POP SWAP1 JUMP JUMPDEST DUP1 PUSH1 0x0 DUP2 SWAP1 SSTORE POP POP JUMP JUMPDEST PUSH1 0x1 SLOAD DUP2 JUMP JUMPDEST DUP1 PUSH1 0x1 DUP2 SWAP1 SSTORE POP POP JUMP JUMPDEST PUSH1 0x0 SLOAD DUP2 JUMP JUMPDEST PUSH1 0x0 PUSH1 0x1 SLOAD SWAP1 POP SWAP1 JUMP JUMPDEST PUSH1 0x0 DUP2 DUP4 PUSH2 0x1DE SWAP2 SWAP1 PUSH2 0x2FD JUMP JUMPDEST SWAP1 POP SWAP3 SWAP2 POP POP JUMP JUMPDEST PUSH1 0x0 DUP2 DUP4 PUSH2 0x1F4 SWAP2 SWAP1 PUSH2 0x2FD JUMP JUMPDEST SWAP1 POP SWAP3 SWAP2 POP POP JUMP JUMPDEST PUSH1 0x0 DUP2 SWAP1 POP SWAP2 SWAP1 POP JUMP JUMPDEST PUSH2 0x20F DUP2 PUSH2 0x1FC JUMP JUMPDEST DUP3 MSTORE POP POP JUMP JUMPDEST PUSH1 0x0 PUSH1 0x20 DUP3 ADD SWAP1 POP PUSH2 0x22A PUSH1 0x0 DUP4 ADD DUP5 PUSH2 0x206 JUMP JUMPDEST SWAP3 SWAP2 POP POP JUMP JUMPDEST PUSH1 0x0 DUP1 REVERT JUMPDEST PUSH2 0x23E DUP2 PUSH2 0x1FC JUMP JUMPDEST DUP2 EQ PUSH2 0x249 JUMPI PUSH1 0x0 DUP1 REVERT JUMPDEST POP JUMP JUMPDEST PUSH1 0x0 DUP2 CALLDATALOAD SWAP1 POP PUSH2 0x25B DUP2 PUSH2 0x235 JUMP JUMPDEST SWAP3 SWAP2 POP POP JUMP JUMPDEST PUSH1 0x0 PUSH1 0x20 DUP3 DUP5 SUB SLT ISZERO PUSH2 0x277 JUMPI PUSH2 0x276 PUSH2 0x230 JUMP JUMPDEST JUMPDEST PUSH1 0x0 PUSH2 0x285 DUP5 DUP3 DUP6 ADD PUSH2 0x24C JUMP JUMPDEST SWAP2 POP POP SWAP3 SWAP2 POP POP JUMP JUMPDEST PUSH1 0x0 DUP1 PUSH1 0x40 DUP4 DUP6 SUB SLT ISZERO PUSH2 0x2A5 JUMPI PUSH2 0x2A4 PUSH2 0x230 JUMP JUMPDEST JUMPDEST PUSH1 0x0 PUSH2 0x2B3 DUP6 DUP3 DUP7 ADD PUSH2 0x24C JUMP JUMPDEST SWAP3 POP POP PUSH1 0x20 PUSH2 0x2C4 DUP6 DUP3 DUP7 ADD PUSH2 0x24C JUMP JUMPDEST SWAP2 POP POP SWAP3 POP SWAP3 SWAP1 POP JUMP JUMPDEST PUSH32 0x4E487B7100000000000000000000000000000000000000000000000000000000 PUSH1 0x0 MSTORE PUSH1 0x11 PUSH1 0x4 MSTORE PUSH1 0x24 PUSH1 0x0 REVERT JUMPDEST PUSH1 0x0 PUSH2 0x308 DUP3 PUSH2 0x1FC JUMP JUMPDEST SWAP2 POP PUSH2 0x313 DUP4 PUSH2 0x1FC JUMP JUMPDEST SWAP3 POP DUP3 DUP3 ADD SWAP1 POP DUP1 DUP3 GT ISZERO PUSH2 0x32B JUMPI PUSH2 0x32A PUSH2 0x2CE JUMP JUMPDEST JUMPDEST SWAP3 SWAP2 POP POP JUMP INVALID LOG2 PUSH5 0x6970667358 0x22 SLT KECCAK256 0x28 0xE1 0x2B CALLDATALOAD ADD 0xE0 PUSH23 0xA7C14F3544CB433C0D82710FA4249F801878EB4D126F1C 0xC9 PUSH27 0x64736F6C6343000818003300000000000000000000000000000000 "},"methodIdentifiers":{"add(uint256,uint256)":"771602f7","addInherit(uint256,uint256)":"bed71cad","data()":"73d4a13a","dataInherit()":"5c3f0ddd","getData()":"3bc5de30","getDataInherit()":"75c75018","setData(uint256)":"5b4b73a9","setDataInherit(uint256)":"611ec541"}}}}}