{
  "_format": "hh-sol-artifact-1",
  "contractName": "FunctionEvent",
  "sourceName": "contracts/FunctionEvent.sol",
  "abi": [
    {
      "inputs": [],
      "stateMutability": "nonpayable",
      "type": "constructor"
    },
    {
      "inputs": [
        {
          "internalType": "uint256",
          "name": "a",
          "type": "uint256"
        },
        {
          "internalType": "uint256",
          "name": "b",
          "type": "uint256"
        }
      ],
      "name": "add",
      "outputs": [
        {
          "internalType": "uint256",
          "name": "",
          "type": "uint256"
        }
      ],
      "stateMutability": "pure",
      "type": "function"
    },
    {
      "inputs": [],
      "name": "data",
      "outputs": [
        {
          "internalType": "uint256",
          "name": "",
          "type": "uint256"
        }
      ],
      "stateMutability": "view",
      "type": "function"
    },
    {
      "inputs": [],
      "name": "getData",
      "outputs": [
        {
          "internalType": "uint256",
          "name": "",
          "type": "uint256"
        }
      ],
      "stateMutability": "view",
      "type": "function"
    },
    {
      "inputs": [
        {
          "internalType": "uint256",
          "name": "_number",
          "type": "uint256"
        }
      ],
      "name": "setData",
      "outputs": [],
      "stateMutability": "nonpayable",
      "type": "function"
    }
  ],
  "bytecode": "0x608060405234801561001057600080fd5b50610273806100206000396000f3fe608060405234801561001057600080fd5b506004361061004c5760003560e01c80633bc5de30146100515780635b4b73a91461006f57806373d4a13a1461008b578063771602f7146100a9575b600080fd5b6100596100d9565b6040516100669190610121565b60405180910390f35b6100896004803603810190610084919061016d565b6100e2565b005b6100936100ec565b6040516100a09190610121565b60405180910390f35b6100c360048036038101906100be919061019a565b6100f2565b6040516100d09190610121565b60405180910390f35b60008054905090565b8060008190555050565b60005481565b600081836101009190610209565b905092915050565b6000819050919050565b61011b81610108565b82525050565b60006020820190506101366000830184610112565b92915050565b600080fd5b61014a81610108565b811461015557600080fd5b50565b60008135905061016781610141565b92915050565b6000602082840312156101835761018261013c565b5b600061019184828501610158565b91505092915050565b600080604083850312156101b1576101b061013c565b5b60006101bf85828601610158565b92505060206101d085828601610158565b9150509250929050565b7f4e487b7100000000000000000000000000000000000000000000000000000000600052601160045260246000fd5b600061021482610108565b915061021f83610108565b9250828201905080821115610237576102366101da565b5b9291505056fea2646970667358221220037cd7bfa21e32bd93210ef6684419057b37fee4213c5f26f2b9d4461cefd76d64736f6c63430008180033",
  "linkReferences": {},
  "deployedLinkReferences": {}
}