{
  "_format": "hh-sol-artifact-1",
  "contractName": "FunctionEventInherit",
  "sourceName": "contracts/FunctionEvent.sol",
  "abi": [
    {
      "inputs": [],
      "stateMutability": "nonpayable",
      "type": "constructor"
    },
    {
      "inputs": [
        {
          "internalType": "uint256",
          "name": "a",
          "type": "uint256"
        },
        {
          "internalType": "uint256",
          "name": "b",
          "type": "uint256"
        }
      ],
      "name": "add",
      "outputs": [
        {
          "internalType": "uint256",
          "name": "",
          "type": "uint256"
        }
      ],
      "stateMutability": "pure",
      "type": "function"
    },
    {
      "inputs": [
        {
          "internalType": "uint256",
          "name": "a",
          "type": "uint256"
        },
        {
          "internalType": "uint256",
          "name": "b",
          "type": "uint256"
        }
      ],
      "name": "addInherit",
      "outputs": [
        {
          "internalType": "uint256",
          "name": "",
          "type": "uint256"
        }
      ],
      "stateMutability": "pure",
      "type": "function"
    },
    {
      "inputs": [],
      "name": "data",
      "outputs": [
        {
          "internalType": "uint256",
          "name": "",
          "type": "uint256"
        }
      ],
      "stateMutability": "view",
      "type": "function"
    },
    {
      "inputs": [],
      "name": "dataInherit",
      "outputs": [
        {
          "internalType": "uint256",
          "name": "",
          "type": "uint256"
        }
      ],
      "stateMutability": "view",
      "type": "function"
    },
    {
      "inputs": [],
      "name": "getData",
      "outputs": [
        {
          "internalType": "uint256",
          "name": "",
          "type": "uint256"
        }
      ],
      "stateMutability": "view",
      "type": "function"
    },
    {
      "inputs": [],
      "name": "getDataInherit",
      "outputs": [
        {
          "internalType": "uint256",
          "name": "",
          "type": "uint256"
        }
      ],
      "stateMutability": "view",
      "type": "function"
    },
    {
      "inputs": [
        {
          "internalType": "uint256",
          "name": "_number",
          "type": "uint256"
        }
      ],
      "name": "setData",
      "outputs": [],
      "stateMutability": "nonpayable",
      "type": "function"
    },
    {
      "inputs": [
        {
          "internalType": "uint256",
          "name": "_number",
          "type": "uint256"
        }
      ],
      "name": "setDataInherit",
      "outputs": [],
      "stateMutability": "nonpayable",
      "type": "function"
    }
  ],
  "bytecode": "0x608060405234801561001057600080fd5b50610367806100206000396000f3fe608060405234801561001057600080fd5b50600436106100885760003560e01c806373d4a13a1161005b57806373d4a13a1461010157806375c750181461011f578063771602f71461013d578063bed71cad1461016d57610088565b80633bc5de301461008d5780635b4b73a9146100ab5780635c3f0ddd146100c7578063611ec541146100e5575b600080fd5b61009561019d565b6040516100a29190610215565b60405180910390f35b6100c560048036038101906100c09190610261565b6101a6565b005b6100cf6101b0565b6040516100dc9190610215565b60405180910390f35b6100ff60048036038101906100fa9190610261565b6101b6565b005b6101096101c0565b6040516101169190610215565b60405180910390f35b6101276101c6565b6040516101349190610215565b60405180910390f35b6101576004803603810190610152919061028e565b6101d0565b6040516101649190610215565b60405180910390f35b6101876004803603810190610182919061028e565b6101e6565b6040516101949190610215565b60405180910390f35b60008054905090565b8060008190555050565b60015481565b8060018190555050565b60005481565b6000600154905090565b600081836101de91906102fd565b905092915050565b600081836101f491906102fd565b905092915050565b6000819050919050565b61020f816101fc565b82525050565b600060208201905061022a6000830184610206565b92915050565b600080fd5b61023e816101fc565b811461024957600080fd5b50565b60008135905061025b81610235565b92915050565b60006020828403121561027757610276610230565b5b60006102858482850161024c565b91505092915050565b600080604083850312156102a5576102a4610230565b5b60006102b38582860161024c565b92505060206102c48582860161024c565b9150509250929050565b7f4e487b7100000000000000000000000000000000000000000000000000000000600052601160045260246000fd5b6000610308826101fc565b9150610313836101fc565b925082820190508082111561032b5761032a6102ce565b5b9291505056fea264697066735822122028e12b3501e076a7c14f3544cb433c0d82710fa4249f801878eb4d126f1cc97a64736f6c63430008180033",
  "linkReferences": {},
  "deployedLinkReferences": {}
}