{
  "_format": "hh-sol-artifact-1",
  "contractName": "LoopBranch",
  "sourceName": "contracts/LoopBranch.sol",
  "abi": [
    {
      "inputs": [],
      "stateMutability": "nonpayable",
      "type": "constructor"
    },
    {
      "inputs": [
        {
          "internalType": "uint256",
          "name": "_count",
          "type": "uint256"
        }
      ],
      "name": "addNumber",
      "outputs": [],
      "stateMutability": "nonpayable",
      "type": "function"
    },
    {
      "inputs": [],
      "name": "getNumber",
      "outputs": [
        {
          "internalType": "uint256",
          "name": "",
          "type": "uint256"
        }
      ],
      "stateMutability": "view",
      "type": "function"
    },
    {
      "inputs": [],
      "name": "getNumberList",
      "outputs": [
        {
          "internalType": "uint256[]",
          "name": "",
          "type": "uint256[]"
        }
      ],
      "stateMutability": "view",
      "type": "function"
    },
    {
      "inputs": [],
      "name": "number",
      "outputs": [
        {
          "internalType": "uint256",
          "name": "",
          "type": "uint256"
        }
      ],
      "stateMutability": "view",
      "type": "function"
    },
    {
      "inputs": [
        {
          "internalType": "uint256",
          "name": "",
          "type": "uint256"
        }
      ],
      "name": "numberList",
      "outputs": [
        {
          "internalType": "uint256",
          "name": "",
          "type": "uint256"
        }
      ],
      "stateMutability": "view",
      "type": "function"
    },
    {
      "inputs": [
        {
          "internalType": "uint256",
          "name": "_number",
          "type": "uint256"
        }
      ],
      "name": "setNumber",
      "outputs": [],
      "stateMutability": "nonpayable",
      "type": "function"
    }
  ],
  "bytecode": "0x608060405234801561001057600080fd5b5060008081905550610481806100276000396000f3fe608060405234801561001057600080fd5b50600436106100625760003560e01c806316421dbf146100675780633fb5c1cb146100975780638381f58a146100b3578063bcb659a4146100d1578063f2c9ecd8146100ef578063fce680231461010d575b600080fd5b610081600480360381019061007c9190610297565b610129565b60405161008e91906102d3565b60405180910390f35b6100b160048036038101906100ac9190610297565b61014d565b005b6100bb6101b0565b6040516100c891906102d3565b60405180910390f35b6100d96101b6565b6040516100e691906103ac565b60405180910390f35b6100f761020e565b60405161010491906102d3565b60405180910390f35b61012760048036038101906101229190610297565b610217565b005b6001818154811061013957600080fd5b906000526020600020016000915090505481565b60008111610190576040517f08c379a00000000000000000000000000000000000000000000000000000000081526004016101879061042b565b60405180910390fd5b600a8111156101a557806000819055506101ad565b600080819055505b50565b60005481565b6060600180548060200260200160405190810160405280929190818152602001828054801561020457602002820191906000526020600020905b8154815260200190600101908083116101f0575b5050505050905090565b60008054905090565b60005b81811015610258576001819080600181540180825580915050600190039060005260206000200160009091909190915055808060010191505061021a565b5050565b600080fd5b6000819050919050565b61027481610261565b811461027f57600080fd5b50565b6000813590506102918161026b565b92915050565b6000602082840312156102ad576102ac61025c565b5b60006102bb84828501610282565b91505092915050565b6102cd81610261565b82525050565b60006020820190506102e860008301846102c4565b92915050565b600081519050919050565b600082825260208201905092915050565b6000819050602082019050919050565b61032381610261565b82525050565b6000610335838361031a565b60208301905092915050565b6000602082019050919050565b6000610359826102ee565b61036381856102f9565b935061036e8361030a565b8060005b8381101561039f5781516103868882610329565b975061039183610341565b925050600181019050610372565b5085935050505092915050565b600060208201905081810360008301526103c6818461034e565b905092915050565b600082825260208201905092915050565b7f4e756d6265722073686f756c642062652067726561746572207468616e203000600082015250565b6000610415601f836103ce565b9150610420826103df565b602082019050919050565b6000602082019050818103600083015261044481610408565b905091905056fea2646970667358221220f12d2cb36a0439ddf09ccf560b90bf34b87ae3366710378920e22ab7204fefd764736f6c63430008180033",
  "linkReferences": {},
  "deployedLinkReferences": {}
}