{
  "_format": "hh-sol-artifact-1",
  "contractName": "SendETH",
  "sourceName": "contracts/SendETH.sol",
  "abi": [
    {
      "inputs": [],
      "stateMutability": "payable",
      "type": "constructor"
    },
    {
      "inputs": [],
      "name": "getBalance",
      "outputs": [
        {
          "internalType": "uint256",
          "name": "",
          "type": "uint256"
        }
      ],
      "stateMutability": "view",
      "type": "function"
    },
    {
      "inputs": [
        {
          "internalType": "address payable",
          "name": "_to",
          "type": "address"
        },
        {
          "internalType": "uint256",
          "name": "_amount",
          "type": "uint256"
        }
      ],
      "name": "sendETH",
      "outputs": [],
      "stateMutability": "nonpayable",
      "type": "function"
    },
    {
      "stateMutability": "payable",
      "type": "receive"
    }
  ],
  "bytecode": "0x60806040526103f1806100136000396000f3fe60806040526004361061002d5760003560e01c806312065fe01461003957806364a197f31461006457610034565b3661003457005b600080fd5b34801561004557600080fd5b5061004e61008d565b60405161005b91906101a2565b60405180910390f35b34801561007057600080fd5b5061008b6004803603810190610086919061024c565b610095565b005b600047905090565b804710156100d8576040517f08c379a00000000000000000000000000000000000000000000000000000000081526004016100cf906102e9565b60405180910390fd5b60008273ffffffffffffffffffffffffffffffffffffffff16826040516100fe9061033a565b60006040518083038185875af1925050503d806000811461013b576040519150601f19603f3d011682016040523d82523d6000602084013e610140565b606091505b5050905080610184576040517f08c379a000000000000000000000000000000000000000000000000000000000815260040161017b9061039b565b60405180910390fd5b505050565b6000819050919050565b61019c81610189565b82525050565b60006020820190506101b76000830184610193565b92915050565b600080fd5b600073ffffffffffffffffffffffffffffffffffffffff82169050919050565b60006101ed826101c2565b9050919050565b6101fd816101e2565b811461020857600080fd5b50565b60008135905061021a816101f4565b92915050565b61022981610189565b811461023457600080fd5b50565b60008135905061024681610220565b92915050565b60008060408385031215610263576102626101bd565b5b60006102718582860161020b565b925050602061028285828601610237565b9150509250929050565b600082825260208201905092915050565b7f496e73756666696369656e742062616c616e6365000000000000000000000000600082015250565b60006102d360148361028c565b91506102de8261029d565b602082019050919050565b60006020820190508181036000830152610302816102c6565b9050919050565b600081905092915050565b50565b6000610324600083610309565b915061032f82610314565b600082019050919050565b600061034582610317565b9150819050919050565b7f4661696c656420746f2073656e64204554480000000000000000000000000000600082015250565b600061038560128361028c565b91506103908261034f565b602082019050919050565b600060208201905081810360008301526103b481610378565b905091905056fea2646970667358221220974ee9ec2824cc4083c37ff46d13214baee60d8ccfb22662aacc0fb9f417d4f664736f6c63430008180033",
  "linkReferences": {},
  "deployedLinkReferences": {}
}