{
  "_format": "hh-sol-artifact-1",
  "contractName": "FunctionSelectorItem",
  "sourceName": "contracts/FunctionSelector.sol",
  "abi": [
    {
      "inputs": [
        {
          "internalType": "address",
          "name": "_functionSelector",
          "type": "address"
        }
      ],
      "stateMutability": "nonpayable",
      "type": "constructor"
    },
    {
      "inputs": [
        {
          "internalType": "uint256",
          "name": "_value",
          "type": "uint256"
        }
      ],
      "name": "callSetValue",
      "outputs": [],
      "stateMutability": "nonpayable",
      "type": "function"
    },
    {
      "inputs": [],
      "name": "functionSelector",
      "outputs": [
        {
          "internalType": "contract FunctionSelector",
          "name": "",
          "type": "address"
        }
      ],
      "stateMutability": "view",
      "type": "function"
    },
    {
      "inputs": [],
      "name": "getSetValueSelector",
      "outputs": [
        {
          "internalType": "bytes4",
          "name": "",
          "type": "bytes4"
        }
      ],
      "stateMutability": "view",
      "type": "function"
    }
  ],
  "bytecode": "0x608060405234801561001057600080fd5b5060405161043b38038061043b833981810160405281019061003291906100db565b806000806101000a81548173ffffffffffffffffffffffffffffffffffffffff021916908373ffffffffffffffffffffffffffffffffffffffff16021790555050610108565b600080fd5b600073ffffffffffffffffffffffffffffffffffffffff82169050919050565b60006100a88261007d565b9050919050565b6100b88161009d565b81146100c357600080fd5b50565b6000815190506100d5816100af565b92915050565b6000602082840312156100f1576100f0610078565b5b60006100ff848285016100c6565b91505092915050565b610324806101176000396000f3fe608060405234801561001057600080fd5b50600436106100415760003560e01c80636d80a1ea14610046578063e13cf0f014610064578063fa47b8a514610082575b600080fd5b61004e61009e565b60405161005b91906101a7565b60405180910390f35b61006c6100ba565b6040516100799190610241565b60405180910390f35b61009c60048036038101906100979190610297565b6100de565b005b60008060009054906101000a905050635524107760e01b905090565b60008054906101000a900473ffffffffffffffffffffffffffffffffffffffff1681565b60008054906101000a900473ffffffffffffffffffffffffffffffffffffffff1673ffffffffffffffffffffffffffffffffffffffff166355241077826040518263ffffffff1660e01b815260040161013791906102d3565b600060405180830381600087803b15801561015157600080fd5b505af1158015610165573d6000803e3d6000fd5b5050505050565b60007fffffffff0000000000000000000000000000000000000000000000000000000082169050919050565b6101a18161016c565b82525050565b60006020820190506101bc6000830184610198565b92915050565b600073ffffffffffffffffffffffffffffffffffffffff82169050919050565b6000819050919050565b60006102076102026101fd846101c2565b6101e2565b6101c2565b9050919050565b6000610219826101ec565b9050919050565b600061022b8261020e565b9050919050565b61023b81610220565b82525050565b60006020820190506102566000830184610232565b92915050565b600080fd5b6000819050919050565b61027481610261565b811461027f57600080fd5b50565b6000813590506102918161026b565b92915050565b6000602082840312156102ad576102ac61025c565b5b60006102bb84828501610282565b91505092915050565b6102cd81610261565b82525050565b60006020820190506102e860008301846102c4565b9291505056fea2646970667358221220ff55742288e8b0f47ee1c1a82ec4cb91ee512ccc4abb8bedf616dafebe61235164736f6c63430008180033",
  "linkReferences": {},
  "deployedLinkReferences": {}
}