{
  "_format": "hh-sol-artifact-1",
  "contractName": "Inherit",
  "sourceName": "contracts/Inherit.sol",
  "abi": [
    {
      "inputs": [
        {
          "internalType": "uint256",
          "name": "_data",
          "type": "uint256"
        }
      ],
      "stateMutability": "nonpayable",
      "type": "constructor"
    },
    {
      "inputs": [],
      "name": "getData",
      "outputs": [
        {
          "internalType": "uint256",
          "name": "",
          "type": "uint256"
        },
        {
          "internalType": "uint256",
          "name": "",
          "type": "uint256"
        }
      ],
      "stateMutability": "view",
      "type": "function"
    },
    {
      "inputs": [
        {
          "internalType": "uint256",
          "name": "_dataA",
          "type": "uint256"
        },
        {
          "internalType": "uint256",
          "name": "_dataB",
          "type": "uint256"
        }
      ],
      "name": "setData",
      "outputs": [],
      "stateMutability": "nonpayable",
      "type": "function"
    }
  ],
  "bytecode": "0x608060405234801561001057600080fd5b5060405161026f38038061026f8339818101604052810190610032919061007c565b808060018190555050506100a9565b600080fd5b6000819050919050565b61005981610046565b811461006457600080fd5b50565b60008151905061007681610050565b92915050565b60006020828403121561009257610091610041565b5b60006100a084828501610067565b91505092915050565b6101b7806100b86000396000f3fe608060405234801561001057600080fd5b50600436106100365760003560e01c80633bc5de301461003b5780634848b1a51461005a575b600080fd5b610043610076565b6040516100519291906100e7565b60405180910390f35b610074600480360381019061006f9190610141565b610091565b005b6000806100816100a7565b6100896100b0565b915091509091565b61009a826100ba565b6100a3816100c4565b5050565b60008054905090565b6000600154905090565b8060008190555050565b8060018190555050565b6000819050919050565b6100e1816100ce565b82525050565b60006040820190506100fc60008301856100d8565b61010960208301846100d8565b9392505050565b600080fd5b61011e816100ce565b811461012957600080fd5b50565b60008135905061013b81610115565b92915050565b6000806040838503121561015857610157610110565b5b60006101668582860161012c565b92505060206101778582860161012c565b915050925092905056fea2646970667358221220a469f81fff0850aa1768c2f287d8eb851cee369793aec0b9df7a9b641f6703f364736f6c63430008180033",
  "linkReferences": {},
  "deployedLinkReferences": {}
}